{
  "contractName": "Voting",
  "abi": [
    {
      "inputs": [
        {
          "internalType": "string[]",
          "name": "_candidatesNames",
          "type": "string[]"
        }
      ],
      "stateMutability": "nonpayable",
      "type": "constructor"
    },
    {
      "inputs": [
        {
          "internalType": "uint256",
          "name": "",
          "type": "uint256"
        }
      ],
      "name": "candidates",
      "outputs": [
        {
          "internalType": "string",
          "name": "name",
          "type": "string"
        },
        {
          "internalType": "uint256",
          "name": "voteCount",
          "type": "uint256"
        }
      ],
      "stateMutability": "view",
      "type": "function",
      "constant": true
    },
    {
      "inputs": [
        {
          "internalType": "address",
          "name": "",
          "type": "address"
        }
      ],
      "name": "voters",
      "outputs": [
        {
          "internalType": "bool",
          "name": "",
          "type": "bool"
        }
      ],
      "stateMutability": "view",
      "type": "function",
      "constant": true
    },
    {
      "inputs": [
        {
          "internalType": "string",
          "name": "_name",
          "type": "string"
        }
      ],
      "name": "addCondidate",
      "outputs": [],
      "stateMutability": "nonpayable",
      "type": "function"
    },
    {
      "inputs": [
        {
          "internalType": "uint256",
          "name": "_candidateIndex",
          "type": "uint256"
        }
      ],
      "name": "vote",
      "outputs": [],
      "stateMutability": "nonpayable",
      "type": "function"
    },
    {
      "inputs": [],
      "name": "getAllVotesOfCandidates",
      "outputs": [
        {
          "components": [
            {
              "internalType": "string",
              "name": "name",
              "type": "string"
            },
            {
              "internalType": "uint256",
              "name": "voteCount",
              "type": "uint256"
            }
          ],
          "internalType": "struct Voting.Candidate[]",
          "name": "",
          "type": "tuple[]"
        }
      ],
      "stateMutability": "view",
      "type": "function",
      "constant": true
    }
  ],
  "bytecode": "0x60806040523480156200001157600080fd5b50604051620011a9380380620011a9833981810160405281019062000037919062000304565b60005b81518110156200010757600060405180604001604052808484815181106200008b577f4e487b7100000000000000000000000000000000000000000000000000000000600052603260045260246000fd5b60200260200101518152602001600081525090806001815401808255809150506001900390600052602060002090600202016000909190919091506000820151816000019080519060200190620000e492919062000150565b506020820151816001015550508080620000fe9062000455565b9150506200003a565b5033600160006101000a81548173ffffffffffffffffffffffffffffffffffffffff021916908373ffffffffffffffffffffffffffffffffffffffff1602179055505062000530565b8280546200015e906200041f565b90600052602060002090601f016020900481019282620001825760008555620001ce565b82601f106200019d57805160ff1916838001178555620001ce565b82800160010185558215620001ce579182015b82811115620001cd578251825591602001919060010190620001b0565b5b509050620001dd9190620001e1565b5090565b5b80821115620001fc576000816000905550600101620001e2565b5090565b60006200021762000211846200037d565b62000349565b9050808382526020820190508260005b858110156200025b5781518501620002408882620002d7565b84526020840193506020830192505060018101905062000227565b5050509392505050565b60006200027c6200027684620003ac565b62000349565b9050828152602081018484840111156200029557600080fd5b620002a2848285620003e9565b509392505050565b600082601f830112620002bc57600080fd5b8151620002ce84826020860162000200565b91505092915050565b600082601f830112620002e957600080fd5b8151620002fb84826020860162000265565b91505092915050565b6000602082840312156200031757600080fd5b600082015167ffffffffffffffff8111156200033257600080fd5b6200034084828501620002aa565b91505092915050565b6000604051905081810181811067ffffffffffffffff8211171562000373576200037262000501565b5b8060405250919050565b600067ffffffffffffffff8211156200039b576200039a62000501565b5b602082029050602081019050919050565b600067ffffffffffffffff821115620003ca57620003c962000501565b5b601f19601f8301169050602081019050919050565b6000819050919050565b60005b8381101562000409578082015181840152602081019050620003ec565b8381111562000419576000848401525b50505050565b600060028204905060018216806200043857607f821691505b602082108114156200044f576200044e620004d2565b5b50919050565b60006200046282620003df565b91507fffffffffffffffffffffffffffffffffffffffffffffffffffffffffffffffff821415620004985762000497620004a3565b5b600182019050919050565b7f4e487b7100000000000000000000000000000000000000000000000000000000600052601160045260246000fd5b7f4e487b7100000000000000000000000000000000000000000000000000000000600052602260045260246000fd5b7f4e487b7100000000000000000000000000000000000000000000000000000000600052604160045260246000fd5b610c6980620005406000396000f3fe608060405234801561001057600080fd5b50600436106100575760003560e01c80630121b93f1461005c5780633477ee2e146100785780633ed2cbfd146100a957806390a9ab90146100c5578063a3ec138d146100e3575b600080fd5b610076600480360381019061007191906106e0565b610113565b005b610092600480360381019061008d91906106e0565b6102a3565b6040516100a092919061092b565b60405180910390f35b6100c360048036038101906100be919061069f565b61035f565b005b6100cd610426565b6040516100da91906108ee565b60405180910390f35b6100fd60048036038101906100f89190610676565b610521565b60405161010a9190610910565b60405180910390f35b600260003373ffffffffffffffffffffffffffffffffffffffff1673ffffffffffffffffffffffffffffffffffffffff16815260200190815260200160002060009054906101000a900460ff16156101a0576040517f08c379a00000000000000000000000000000000000000000000000000000000081526004016101979061097b565b60405180910390fd5b60008054905081106101e7576040517f08c379a00000000000000000000000000000000000000000000000000000000081526004016101de9061095b565b60405180910390fd5b60008181548110610221577f4e487b7100000000000000000000000000000000000000000000000000000000600052603260045260246000fd5b9060005260206000209060020201600101600081548092919061024390610b1e565b91905055506001600260003373ffffffffffffffffffffffffffffffffffffffff1673ffffffffffffffffffffffffffffffffffffffff16815260200190815260200160002060006101000a81548160ff02191690831515021790555050565b600081815481106102b357600080fd5b90600052602060002090600202016000915090508060000180546102d690610aec565b80601f016020809104026020016040519081016040528092919081815260200182805461030290610aec565b801561034f5780601f106103245761010080835404028352916020019161034f565b820191906000526020600020905b81548152906001019060200180831161033257829003601f168201915b5050505050908060010154905082565b600160009054906101000a900473ffffffffffffffffffffffffffffffffffffffff1673ffffffffffffffffffffffffffffffffffffffff163373ffffffffffffffffffffffffffffffffffffffff16146103b957600080fd5b60006040518060400160405280838152602001600081525090806001815401808255809150506001900390600052602060002090600202016000909190919091506000820151816000019080519060200190610416929190610541565b5060208201518160010155505050565b60606000805480602002602001604051908101604052809291908181526020016000905b82821015610518578382906000526020600020906002020160405180604001604052908160008201805461047d90610aec565b80601f01602080910402602001604051908101604052809291908181526020018280546104a990610aec565b80156104f65780601f106104cb576101008083540402835291602001916104f6565b820191906000526020600020905b8154815290600101906020018083116104d957829003601f168201915b505050505081526020016001820154815250508152602001906001019061044a565b50505050905090565b60026020528060005260406000206000915054906101000a900460ff1681565b82805461054d90610aec565b90600052602060002090601f01602090048101928261056f57600085556105b6565b82601f1061058857805160ff19168380011785556105b6565b828001600101855582156105b6579182015b828111156105b557825182559160200191906001019061059a565b5b5090506105c391906105c7565b5090565b5b808211156105e05760008160009055506001016105c8565b5090565b60006105f76105f2846109cc565b61099b565b90508281526020810184848401111561060f57600080fd5b61061a848285610aaa565b509392505050565b60008135905061063181610c05565b92915050565b600082601f83011261064857600080fd5b81356106588482602086016105e4565b91505092915050565b60008135905061067081610c1c565b92915050565b60006020828403121561068857600080fd5b600061069684828501610622565b91505092915050565b6000602082840312156106b157600080fd5b600082013567ffffffffffffffff8111156106cb57600080fd5b6106d784828501610637565b91505092915050565b6000602082840312156106f257600080fd5b600061070084828501610661565b91505092915050565b60006107158383610893565b905092915050565b600061072882610a0c565b6107328185610a2f565b935083602082028501610744856109fc565b8060005b8581101561078057848403895281516107618582610709565b945061076c83610a22565b925060208a01995050600181019050610748565b50829750879550505050505092915050565b61079b81610a74565b82525050565b60006107ac82610a17565b6107b68185610a40565b93506107c6818560208601610ab9565b6107cf81610bf4565b840191505092915050565b60006107e582610a17565b6107ef8185610a51565b93506107ff818560208601610ab9565b61080881610bf4565b840191505092915050565b6000610820601783610a51565b91507f496e76616c69642063616e64696461746520696e6465780000000000000000006000830152602082019050919050565b6000610860601683610a51565b91507f596f75206861766520616c726561647920766f746564000000000000000000006000830152602082019050919050565b600060408301600083015184820360008601526108b082826107a1565b91505060208301516108c560208601826108d0565b508091505092915050565b6108d981610aa0565b82525050565b6108e881610aa0565b82525050565b60006020820190508181036000830152610908818461071d565b905092915050565b60006020820190506109256000830184610792565b92915050565b6000604082019050818103600083015261094581856107da565b905061095460208301846108df565b9392505050565b6000602082019050818103600083015261097481610813565b9050919050565b6000602082019050818103600083015261099481610853565b9050919050565b6000604051905081810181811067ffffffffffffffff821117156109c2576109c1610bc5565b5b8060405250919050565b600067ffffffffffffffff8211156109e7576109e6610bc5565b5b601f19601f8301169050602081019050919050565b6000819050602082019050919050565b600081519050919050565b600081519050919050565b6000602082019050919050565b600082825260208201905092915050565b600082825260208201905092915050565b600082825260208201905092915050565b6000610a6d82610a80565b9050919050565b60008115159050919050565b600073ffffffffffffffffffffffffffffffffffffffff82169050919050565b6000819050919050565b82818337600083830152505050565b60005b83811015610ad7578082015181840152602081019050610abc565b83811115610ae6576000848401525b50505050565b60006002820490506001821680610b0457607f821691505b60208210811415610b1857610b17610b96565b5b50919050565b6000610b2982610aa0565b91507fffffffffffffffffffffffffffffffffffffffffffffffffffffffffffffffff821415610b5c57610b5b610b67565b5b600182019050919050565b7f4e487b7100000000000000000000000000000000000000000000000000000000600052601160045260246000fd5b7f4e487b7100000000000000000000000000000000000000000000000000000000600052602260045260246000fd5b7f4e487b7100000000000000000000000000000000000000000000000000000000600052604160045260246000fd5b6000601f19601f8301169050919050565b610c0e81610a62565b8114610c1957600080fd5b50565b610c2581610aa0565b8114610c3057600080fd5b5056fea264697066735822122065fd815ef48763ad442d6ea4f0005e87ece1a8b47cfb41cb9363b8543e36ecf464736f6c63430008000033",
  "immutableReferences": {},
  "source": "// SPDX-License-Identifier: MIT\r\npragma solidity ^0.8.0;\r\n\r\ncontract Voting{\r\n    struct Candidate{\r\n        string name;\r\n        uint256 voteCount;\r\n    }\r\n\r\n    Candidate[] public candidates;\r\n\r\n    address owner;\r\n    mapping(address => bool) public voters;\r\n\r\n\r\n    constructor(string[] memory _candidatesNames){\r\n        for(uint256 i = 0; i< _candidatesNames.length; i++){\r\n            candidates.push(Candidate({\r\n                name: _candidatesNames[i],\r\n                voteCount:0\r\n            }));\r\n        }\r\n\r\n        owner = msg.sender;\r\n\r\n    }\r\n\r\n    modifier onlyOwner {\r\n        require(msg.sender == owner);\r\n        _;\r\n    }\r\n\r\n    function addCondidate(string memory _name) public onlyOwner{\r\n        candidates.push(Candidate({\r\n            name:_name,\r\n            voteCount:0\r\n        }));\r\n    }\r\n\r\n    function vote(uint256 _candidateIndex) public {\r\n        require(!voters[msg.sender], \"You have already voted\");\r\n        require(_candidateIndex <candidates.length,\"Invalid candidate index\");\r\n\r\n        candidates[_candidateIndex].voteCount++;\r\n        voters[msg.sender] = true;\r\n    }\r\n\r\n    function getAllVotesOfCandidates() public view returns (Candidate[] memory){\r\n        return candidates;\r\n    }\r\n    \r\n\r\n}\r\n",
  "sourcePath": "D:\\finalProjects\\VoteSolidity\\contracts\\Voting.sol",
  "compiler": {
    "name": "solc",
    "version": "0.8.0+commit.c7dfd78e.Emscripten.clang"
  },
  "schemaVersion": "3.4.15",
  "updatedAt": "2023-10-26T10:05:53.360Z",
  "networkType": "ethereum",
  "devdoc": {
    "kind": "dev",
    "methods": {},
    "version": 1
  },
  "userdoc": {
    "kind": "user",
    "methods": {},
    "version": 1
  }
}